:100000000C942A000C9447000C9447000C94470071
:100010000C9447000C9447000C9447000C94A500E6
:100020000C9447000C9447000C9447000C94470034
:100030000C9447000C9447000C9447000C94470024
:100040000C9447000C9447000C9447000C94470014
:100050000C94470011241FBECFE5D8E0DEBFCDBF12
:1000600010E0A0E6B0E0EEE8F1E002C005900D92ED
:10007000AA36B107D9F710E0AAE6B0E001C01D9298
:10008000A537B107E1F70E9462000C94C5000C94FB
:1000900000008EB588608EBD8EB584608EBD82E214
:1000A0009DE39BBD8ABD89B7806189BF08958FEFAD
:1000B00084BB15BA0895E0E6F0E0E80FF11D8081F9
:1000C00085BB08950E9449008FEF84BB15BA7894D0
:1000D000B89AC098909A8BE08093720081E08093E8
:1000E000730028EC30E04BE051E0809172008823EF
:1000F00059F4C09A80E593ECF9013197F1F7019733
:10010000D9F7C0984093720080990DC08091730018
:10011000882349F01092730088E893E1F901319740
:10012000F1F70197D9F78099E0CF80917300882388
:10013000E1F6409372005093730088E893E1F9016F
:100140003197F1F70197D9F7D0CF1F920F920FB6E1
:100150000F9211248F93EF93FF9380917300882364
:1001600029F080917200815080937200E0917200BA
:10017000F0E0E05AFF4F808185BBFF91EF918F91B6
:0E0180000F900FBE0F901F901895F894FFCFB0
:0A018E007E306D79335B5F707F7B7C
:00000001FF
