:100000000C942A000C9447000C9447000C94470071
:100010000C9447000C9447000C9447000C94050581
:100020000C9447000C9447000C9447000C94470034
:100030000C9447000C9447000C9447000C94470024
:100040000C9447000C9447000C9447000C94470014
:100050000C94470011241FBECFE5D8E0DEBFCDBF12
:1000600011E0A0E6B0E0E6EAF5E102C005900D92ED
:10007000AE3DB107D9F711E0AEEDB1E001C01D9280
:10008000AC3FB107E1F70E946C070C94D10A0C94C5
:100090000000A0E2B0E0EFE4F0E00C94F207698326
:1000A0007A838B839C832D833E834F835887CE0135
:1000B0000196BE01675F7F4F0E943403CE01059613
:1000C000BE016F5E7F4F0E9434039985923088F0A5
:1000D00089898230C8F0943019F4823051F404C018
:1000E000843029F4923081F48AEC90E0C6C09230DA
:1000F00049F420E09A858A89981321E02A87CE0165
:100100000996BBC0823049F420E09A858A89981309
:1001100021E02A8BCE014196B0C02D843E844F84CD
:1001200058886D887E888F88988CEE24FF248701FC
:10013000AA24BB24650140E050E060E070E0E0E00C
:10014000F0E0C10181709070892BE9F0E60CF71C9A
:10015000081D191D9A01AB012A0D3B1D4C1D5D1D8B
:1001600080E090E0A0E0B0E0E614F704080519058F
:1001700020F481E090E0A0E0B0E0BA01A901480FCE
:10018000591F6A1F7B1FAA0CBB1CCC1CDD1C97FED1
:1001900008C081E090E0A0E0B0E0A82AB92ACA2A0D
:1001A000DB2A3196E032F10549F0660C771C881C99
:1001B000991C5694479437942794C3CFFA85EA89BB
:1001C0002B893C898B859C85280F391F2E5F3F4FDB
:1001D00017C0CA0181709070892B61F01695079540
:1001E000F794E79480E090E0A0E0B0E8E82AF92AEC
:1001F0000A2B1B2B76956795579547952F5F3F4F99
:1002000077FDE7CF0CC0440F551F661F771F17FD02
:100210004160EE0CFF1C001F111F21503040403088
:1002200090E0590790E0690790E4790760F32B8F1D
:100230003C8FDB01CA018F779070A070B070803462
:100240009105A105B10561F447FD0AC0E114F1046F
:100250000105110529F0405C5F4F6F4F7F4F4078DB
:100260001A8EFE1711F081E08A8F4D8F5E8F6F8F8F
:1002700078A383E0898FCE0149960E945F02A09601
:10028000E2E10C940E08ACE0B0E0E9E4F1E00C949B
:10029000020869837A838B839C83CE010196BE0119
:1002A0006B5F7F4F0E9434038D81823061F1823019
:1002B00050F1843021F48E81882351F12EC02F819A
:1002C000388537FD20C06E812F3131051CF0662343
:1002D000F9F023C08EE190E0821B930B29853A85CB
:1002E0004B855C8504C056954795379527958A952B
:1002F000D2F76623B1F050954095309521953F4F48
:100300004F4F5F4F0EC020E030E040E050E009C0AA
:100310002FEF3FEF4FEF5FE704C020E030E040E019
:1003200050E8B901CA012C96E2E00C941E08A8E03E
:10033000B0E0EDE9F1E00C94FA077B018C01611566
:1003400071058105910519F482E0898360C083E01D
:1003500089838EE1C82ED12CDC82CB82ED82FE8295
:100360000F831887C801B7010E941002FC01319762
:10037000F7FF3BC0222733272E1B3F0B5701680195
:10038000022E04C0D694C794B794A7940A94D2F7C7
:1003900040E050E060E070E081E090E0A0E0B0E09C
:1003A00004C0880F991FAA1FBB1F2A95D2F7019777
:1003B000A109B1098E219F21A023B1230097A10596
:1003C000B10521F041E050E060E070E04A295B298E
:1003D0006C297D294D835E836F8378878EE190E061
:1003E0008E1B9F0B9C838B8312C0309781F00E2E47
:1003F00004C0EE0CFF1C001F111F0A94D2F7ED82FF
:10040000FE820F831887CE1ADF0ADC82CB821A8223
:10041000CE0101960E945F022896EAE00C9416082D
:10042000EF92FF920F931F937B018C0180E0E816FF
:1004300080E0F80681E0080780E0180788F48FEF75
:10044000E816F1040105110531F028F088E090E08C
:10045000A0E0B0E017C080E090E0A0E0B0E012C003
:1004600080E0E81680E0F80680E0080781E01807E1
:1004700028F088E190E0A0E0B0E004C080E190E0E6
:10048000A0E0B0E020E230E040E050E0281B390B73
:100490004A0B5B0B04C016950795F794E7948A9571
:1004A000D2F7F701EE52FF4F8081281B3109410935
:1004B0005109C9011F910F91FF90EF900895DF92AC
:1004C000EF92FF920F931F93FC01E480F580068169
:1004D0001781D1808081823048F480E090E0A0E1F3
:1004E000B0E0E82AF92A0A2B1B2BA5C0843009F4B6
:1004F0009FC0823021F4EE24FF24870105C0E1145F
:10050000F1040105110519F4E0E0F0E096C0628104
:1005100073819FEF623879070CF05BC022E83FEFF0
:10052000261B370B2A3131052CF020E030E040E06B
:1005300050E02AC0B801A701022E04C07695679545
:10054000579547950A94D2F781E090E0A0E0B0E09B
:1005500004C0880F991FAA1FBB1F2A95D2F70197C5
:10056000A109B1098E219F21A023B1230097A105E4
:10057000B10521F081E090E0A0E0B0E09A01AB018C
:10058000282B392B4A2B5B2BDA01C9018F7790700E
:10059000A070B07080349105A105B10539F427FF32
:1005A00009C0205C3F4F4F4F5F4F04C0215C3F4F5D
:1005B0004F4F5F4FE0E0F0E02030A0E03A07A0E0CE
:1005C0004A07A0E45A0710F0E1E0F0E079018A015F
:1005D00027C06038710564F5FB01E158FF4FD80171
:1005E000C7018F779070A070B07080349105A1051D
:1005F000B10539F4E7FE0DC080E490E0A0E0B0E082
:1006000004C08FE390E0A0E0B0E0E80EF91E0A1FFE
:100610001B1F17FF05C016950795F794E7943196B1
:1006200087E016950795F794E7948A95D1F705C06A
:10063000EE24FF248701EFEFF0E06E2F6795662729
:100640006795902F9F77D794DD24D7948E2F86952A
:10065000492F462B582F5D29B701CA011F910F91D1
:10066000FF90EF90DF900895FC01DB014081518104
:100670002281622F6F7770E0221F2227221F938131
:10068000892F880F822B282F30E0991F9927991FD7
:1006900011969C93119721153105A9F54115510526
:1006A0006105710511F482E037C082E89FEF13966F
:1006B0009C938E9312979A01AB0167E0220F331F30
:1006C000441F551F6A95D1F783E08C930DC0220F0C
:1006D000331F441F551F12968D919C9113970197BC
:1006E00013969C938E931297203080E0380780E019
:1006F000480780E4580758F314962D933D934D9383
:100700005C93179708952F3F310579F441155105F2
:100710006105710519F484E08C93089564FF03C0AA
:1007200081E08C9312C01C9210C02F57304013965A
:100730003C932E93129783E08C9387E0440F551FD0
:10074000661F771F8A95D1F7706414964D935D9359
:100750006D937C931797089580FF02C0C29A01C0E1
:10076000C29881FF02C0C39A01C0C39882FF02C031
:10077000C49A01C0C49883FF02C0C59A0895C59861
:1007800008951F93182FC19A82958F700E94AC0311
:10079000C198C19A812F0E94AC03C19885E88A95BF
:1007A000F1F71F910895C0980E94C1030895C09A5F
:1007B0000E94C1030895CF93DF93EC0103C02196FB
:1007C0000E94D70388818823D1F7DF91CF910895C4
:1007D0006295660F660F607C680F862F80680E94A6
:1007E000D303089581E00E94D30380EA9FE001973C
:1007F000F1F7089582E00E94D30380EA9FE0019719
:10080000F1F708951F93CF93DF93BA9ABB9ABC9ADE
:10081000BD9AB99AB89A80E395E70197F1F7C09825
:10082000C19810E0C0E1D7E2C19A83E00E94AC0316
:10083000C198CE010197F1F71F5F1330A9F7C19A54
:1008400082E00E94AC03C19880ED97E00197F1F738
:1008500088E20E94D30388E00E94D30381E00E94D3
:10086000D30380EA9FE00197F1F786E00E94D3036B
:100870008CE00E94D303DF91CF911F9108958EB534
:1008800088608EBD8EB584608EBD81E792E09BBD91
:100890008ABD89B7806189BF08958FEF84BB15BA7F
:1008A00008953E9A3F98319A329A3098379A3898FC
:1008B00039983A983B983C980895889889988A98EE
:1008C0008B98909A919A929A939A08951092F60121
:1008D0001092FA011092F8011092F9011092F701AA
:1008E000DD98DE98DF988091E10185BBF89408954A
:1008F000FC0182309105BCF022E030E008C0CF015D
:10090000B9010E94CB07892B71F02F5F3F4F229FC7
:10091000C001239F900D329F900D1124E817F90715
:1009200074F781E0089580E008958091FB0180FDD7
:1009300008C08091FB01823021F08091FB01882367
:1009400011F58091FB0180FD08C08091FB01823090
:10095000E9F08091FB018823C9F08091FB0190E0D0
:100960000E947804882319F421E030E014C08091BB
:10097000FB0190E00E947804882359F48091FB01E8
:10098000813039F0089520E030E005C023E030E008
:1009900002C022E030E0C9010895369A3699FECFB0
:1009A00024B135B1C901089583990FC08091D20156
:1009B000882359F01092D20180ED97E028EC30E0C6
:1009C000F9013197F1F70197D9F7839916C0809112
:1009D000D201882391F41092F7011092FA0110923B
:1009E000F90181E08093D20180ED97E028EC30E0BE
:1009F000F9013197F1F70197D9F70895E3EDF1E0A7
:100A0000E80FF11D808185BB08951F920F920FB6EC
:100A10000F9211246F937F938F939F938091D201B4
:100A2000882329F08091F7018F5F8093F7018091EF
:100A3000F70190E0880F991F8093F9018091F901E7
:100A40008436A9F48091FA018F5F8093FA01809136
:100A5000F6018F5F8093F6011092F7011092F90171
:100A60008BB390E289278BBB8BB380588BBB809173
:100A7000FA018C3339F48091F8018F5F8093F8018B
:100A80001092FA018091F6016AE00E94BF07992353
:100A900011F41092F6019F918F917F916F910F90B9
:100AA0000FBE0F901F9018958091E001882309F0E8
:100AB00039C080991CC00E94F2038091DE019091A0
:100AC000DF018430910529F41092DF011092DE01DC
:100AD00005C001969093DF018093DE0180ED97E0E1
:100AE00028EC30E0F9013197F1F70197D9F78299B5
:100AF00019C00E94F2038091DE019091DF010097FE
:100B000019F484E090E001C001979093DF01809395
:100B1000DE0180ED97E028EC30E0F9013197F1F744
:100B20000197D9F78091DE019091DF0108950E942D
:100B300054058230910509F18330910534F4009712
:100B400051F0019709F03FC00FC083309105F1F0DB
:100B50000497C9F52AC080E060E00E94E80382EEB5
:100B600091E060E670E01AC080E060E00E94E80377
:100B700082EE91E067E670E011C080E060E00E94E4
:100B8000E80382EE91E060E770E008C080E060E09A
:100B90000E94E80382EE91E069E770E00E94290874
:100BA00082EE91E00E94DB03089580E060E00E9405
:100BB000E80382EE91E061E870E00E94290882EE8D
:100BC00091E00E94DB03089580E060E00E94E8036A
:100BD00082EE91E06BE870E00E94290882EE91E0DD
:100BE0000E94DB0380E49CE928EC30E0F9013197B6
:100BF000F1F70197D9F70E94F2031092E0010895EE
:100C0000CF92DF92EF92FF920F931F93369A36990D
:100C1000FECF64B175B180E090E00E94970123E2BD
:100C20003BED49EF5EE30E9449000E944301DC0175
:100C3000CB016C0164E670E00E94CB078B01A39AA4
:100C400080E060E00E94E8032DB73EB728503040B6
:100C50000FB6F8943EBF0FBE2DBFEDB7FEB731966D
:100C600072EEE72E71E0F72EADB7BEB71296FC928A
:100C7000EE92119789E990E0938382831583048330
:100C80008CE99FEF9C01029FC001039F900D129F72
:100C9000900D11248C0D9D1D978386830E94300832
:100CA0008DB79EB708960FB6F8949EBF0FBE8DBF46
:100CB000C7010E94DB031F910F91FF90EF90DF901F
:100CC000CF9008950F931F93809915C08091FB01D9
:100CD000823388F4DD98DE98DF988091FB018F5F86
:100CE0008093FB0180ED97E028EC30E0F90131972B
:100CF000F1F70197D9F7829915C08091FB018823FC
:100D000089F0DD98DE98DF988091FB018150809317
:100D1000FB0180ED97E028EC30E0F9013197F1F725
:100D20000197D9F780E060E00E94E8032091FB0181
:100D300000D000D000D0EDB7FEB7319602EE11E042
:100D4000ADB7BEB712961C930E93119789EA90E047
:100D500093838283248315820E9430088DB79EB7C7
:100D600006960FB6F8949EBF0FBE8DBFC8010E94B5
:100D7000DB030E9495048130910571F0823091056A
:100D80001CF4892B39F00EC08230910539F003979D
:100D900049F406C0DD9A06C0DE9A04C0DE9A01C09E
:100DA000DD9ADF9A1F910F9108950F931F930E9470
:100DB000540582309105D1F08330910534F40097C9
:100DC00061F0019709F085C00BC08330910509F4EB
:100DD00044C0049709F07DC07AC00E94E40579C040
:100DE000D59AD69AD79A0E94620673C0D59ADF9890
:100DF00080E060E00E94E8032091FA013091F9015F
:100E00008DB79EB708970FB6F8949EBF0FBE8DBFE3
:100E1000EDB7FEB7319682EE91E0ADB7BEB7129650
:100E20009C938E9311978CEA90E093838283248322
:100E30001582368317820E94300878948DB79EB74A
:100E400008960FB6F8949EBF0FBE8DBF82EE91E05C
:100E50000E94DB030E94D4043CC0D79ADD9881E055
:100E60008093D20178948091F60190E00E94FE0474
:100E700080E060E00E94E8032091F8013091FA01DF
:100E8000ADB7BEB718970FB6F894BEBF0FBEADBFD3
:100E9000EDB7FEB7319602EE11E012961C930E9359
:100EA00011978CEA90E093838283248315823683A2
:100EB00017820E9430088DB79EB708960FB6F89437
:100EC0009EBF0FBE8DBFC8010E94DB0302C00E94FF
:100ED00000061F910F9108951F930E9402040E9423
:100EE0005D040E943F048FEF84BB15BA1092F70196
:100EF0000E94FA030E94510480E060E00E94E8032F
:100F000082EE91E062EB70E00E94290882EE91E0AF
:100F10000E94DB0380E061E00E94E80382EE91E042
:100F200063EC70E00E94290882EE91E00E94DB03EE
:100F300080E49CE928EC30E0F9013197F1F7019762
:100F4000D9F70E94F20311E0819904C00E94F203D4
:100F50001092E001839904C00E94F2031093E00113
:100F60008091E001882321F40E9497050E94660485
:100F70008091E001882341F30E94D506E5CF991BBB
:100F800079E004C0991F961708F0961B881F7A9580
:100F9000C9F78095089597FB092E07260AD077FD9B
:100FA00004D00CD006D000201AF4709561957F4FC4
:100FB0000895F6F7909581959F4F0895AA1BBB1B46
:100FC00051E107C0AA1FBB1FA617B70710F0A61B49
:100FD000B70B881F991F5A95A9F780959095BC016A
:100FE000CD0108952F923F924F925F926F927F9220
:100FF0008F929F92AF92BF92CF92DF92EF92FF9229
:101000000F931F93CF93DF93CDB7DEB7CA1BDB0BD4
:101010000FB6F894DEBF0FBECDBF09942A88398879
:1010200048885F846E847D848C849B84AA84B98480
:10103000C884DF80EE80FD800C811B81AA81B9818C
:10104000CE0FD11D0FB6F894DEBF0FBECDBFED01A0
:101050000895FB01DC0101900D920020E1F7089555
:10106000AEE0B0E0E6E3F8E00C9400080D891E89DC
:1010700086E08C831A8309838FEF9FE79E838D839D
:101080009E01275E3F4FCE0101966F89788DA901A1
:101090000E9454082F813885020F131FF801108217
:1010A0002E96E4E00C941C08ABE0B0E0EAE5F8E032
:1010B0000C94F2073C012B015A01FC0117821682A5
:1010C000838181FD03C06FEF7FEFC6C19AE0892E57
:1010D0001E010894211C311CF3012381F20123FD20
:1010E000859123FF81912F01882309F4B2C18532B4
:1010F00039F423FD859123FF81912F01853229F455
:1011000090E0B3010E94470AE7CF982FFF24EE2416
:101110009924FFE1FF15D0F09B3269F09C3228F44E
:10112000903259F0933291F40EC09D3249F09033D1
:1011300069F441E024C052E0F52A84E0F82A28C08E
:1011400098E0F92A25C0E0E1FE2A22C0F7FC29C078
:10115000892F80538A3070F4F6FE05C0989C902C3D
:101160001124980E15C0E89CE02C1124E80EF0E242
:10117000FF2A0EC09E3229F4F6FC6BC140E4F42A2B
:1011800007C09C3619F450E8F52A02C0983649F495
:10119000F20123FD959123FF91912F01992309F0ED
:1011A000B8CF892F8554833018F08052833038F4BB
:1011B00044E050E0A40EB51E5FE359830FC09336A0
:1011C00031F0933779F0933509F056C020C0F5011E
:1011D0008081898342E050E0A40EB51E610101E0E8
:1011E00010E012C0F501C080D180F6FC03C06FEFA3
:1011F0007FEF02C0692D70E042E050E0A40EB51E02
:10120000C6010E943C0A8C015FE7F52214C0F5017B
:10121000C080D180F6FC03C06FEF7FEF02C0692D64
:1012200070E042E050E0A40EB51EC6010E94310AF3
:101230008C0150E8F52AF3FE07C01AC080E290E066
:10124000B3010E94470AEA948E2D90E0081719070F
:10125000A8F30EC0F601F7FC8591F7FE81916F01AE
:1012600090E0B3010E94470AE110EA940150104057
:101270000115110579F7EAC0943611F0993669F530
:10128000F7FE08C0F501208131814281538184E05D
:1012900090E00AC0F501808191819C01442737FDCF
:1012A0004095542F82E090E0A80EB91E9FE6F922E7
:1012B00057FF09C050954095309521953F4F4F4FAE
:1012C0005F4FE0E8FE2ACA01B901A1012AE030E03F
:1012D0000E94730AD82ED21840C0953729F41F2DCA
:1012E0001F7E2AE030E01DC01F2D197F9F3661F060
:1012F000903720F4983509F0ACC00FC0903739F022
:10130000983709F0A6C004C028E030E00AC0106198
:1013100014FD146020E130E004C014FD166020E1EB
:1013200032E017FF08C0F5016081718182819381ED
:1013300044E050E008C0F50180819181BC0180E06B
:1013400090E042E050E0A40EB51EA1010E94730A95
:10135000D82ED2188FE7F82EF122F6FE0BC05EEFE2
:10136000F522D91438F4F4FE07C0F2FC05C08FEE64
:10137000F82202C01D2D01C0192DF4FE0DC0FE0182
:10138000ED0DF11D8081803319F499EEF92208C02A
:101390001F5FF2FE05C003C08F2D867809F01F5F26
:1013A0000F2DF3FC14C0F0FE0FC01E1510F09D2C85
:1013B0000BC09D2C9E0C911A1E2D06C080E290E061
:1013C000B3010E94470A1F5F1E15C0F304C01E151B
:1013D00010F4E11A01C0EE2404FF0FC080E390E096
:1013E000B3010E94470A02FF1DC001FD03C088E748
:1013F00090E00EC088E590E00BC0802F867891F0D9
:1014000001FF02C08BE201C080E2F7FC8DE290E0B8
:10141000B3010E94470A06C080E390E0B3010E9436
:10142000470A9A94D914C0F3DA94F101ED0DF11D35
:10143000808190E0B3010E94470ADD20A9F706C031
:1014400080E290E0B3010E94470AEA94EE20C1F7DF
:1014500043CEF30166817781CB012B96E2E10C94B8
:101460000E08FC010590615070400110D8F780957E
:1014700090958E0F9F1F0895FC0161507040019060
:101480000110D8F7809590958E0F9F1F08950F93A8
:101490001F93CF93DF938C01EB018B8181FF1BC0E6
:1014A00082FF0DC02E813F818C819D8128173907D5
:1014B00064F4E881F9810193F983E88306C0E88543
:1014C000F985802F0995892B31F48E819F810196B2
:1014D0009F838E8302C00FEF1FEFC801DF91CF9172
:1014E0001F910F910895FA01AA27283051F1203158
:1014F00081F1E8946F936E7F6E5F7F4F8F4F9F4FA8
:10150000AF4FB1E03ED0B4E03CD0670F781F891FE9
:101510009A1FA11D680F791F8A1F911DA11D6A0FB7
:10152000711D811D911DA11D20D009F468943F916A
:101530002AE0269F11243019305D3193DEF6CF0169
:101540000895462F4770405D4193B3E00FD0C9F72F
:10155000F6CF462F4F70405D4A3318F0495D31FD9C
:101560004052419302D0A9F7EACFB4E0A6959795EF
:10157000879577956795BA95C9F7009761057105C5
:1015800008959B01AC010A2E06945795479537950F
:101590002795BA95C9F7620F731F841F951FA01D69
:0615A0000895F894FFCF4E
:1015A600312E496E666F00322E4C69637A6279007D
:1015B600332E53746F70657200342E5A65676172EC
:1015C60000352E4D6965726E696B00576974616AE4
:1015D600209C77696563696500506F6D696172313A
:1015E6003A2025642E2564560025640025643A2594
:1015F600640050726F6772616D2050544D20323016
:101606003231003235323839340000000000000033
:10161600000000010202030303030404040404049B
:101626000404050505050505050505050505050566
:101636000505060606060606060606060606060646
:101646000606060606060606060606060606060634
:101656000606070707070707070707070707070716
:101666000707070707070707070707070707070704
:1016760007070707070707070707070707070707F4
:1016860007070707070707070707070707070707E4
:1016960007070808080808080808080808080808C6
:1016A60008080808080808080808080808080808B4
:1016B60008080808080808080808080808080808A4
:1016C6000808080808080808080808080808080894
:1016D6000808080808080808080808080808080884
:1016E6000808080808080808080808080808080874
:1016F6000808080808080808080808080808080864
:101706000808080808080808080808080808080853
:0E1716000808017E306D79335B5F707F7B00C9
:04000005008001D2A4
:00000001FF
